:100000000C943B010C946C010C946C010C946C01ED
:100010000C946C010C946C010C946C010C946C01AC
:100020000C946C010C946C010C946C010C946C019C
:100030000C946C010C946C010C946C010C946C018C
:100040000C946C010C946C010C946C010C946C017C
:100050000C946C010C946C010C946C010C94A20433
:100060000C946C010C946C040C9442040C946C0180
:100070000C946C010C946C010C946C010C946C014C
:100080000C946C010C946C010C946C010C946C013C
:100090000C946C010C946C010C946C010C946C012C
:1000A0000C946C010C946C010C946C010C946C011C
:1000B0000C946C010C946C010C946C010C946C010C
:1000C0000C946C010C946C010C946C010C946C01FC
:1000D0000C946C010C946C010C946C010C946C01EC
:1000E0000C946C010C94EC040C948A030C94F603AD
:1000F0000C9478030C9401020C94E4020C943604E2
:100100000C9472030C9497020C945D030C9480037E
:100110000C9486030C9465030C9468030C94980368
:100120000C9459030C94C5030C943D020C94940355
:100130000C948E030C9461030C947C030C94930335
:100140000C9451020C946E030C942E020C945F02DA
:100150000C94530300002100240027002A002D00E6
:100160003000330001010000040107010A01000012
:100170002200250028002B002E003100340002014F
:100180000000050108010B010000200023002600EB
:1001900029002C002F00320000010000030106019D
:1001A00009010505050507050808080802020202FD
:1001B0000A0A080804040404010101010101010103
:1001C0000303030303030303040707070C0C0C0CCE
:1001D0000C0C0C0C020202020606060606060606B7
:1001E0000B0B0B0B0B0B0B0B010210202008081044
:1001F0002040102040800201020108040201010297
:10020000040810204080804020100804020180046F
:1002100002018040201008040201080402010102CA
:1002200004081020408001020408102040800000D3
:100230000A0B02090C0D0E08070304010000000060
:1002400000000000000000000000000000000000AE
:10025000000000000000000000001211100000006B
:10026000000000000000000000000000000000008E
:1002700000000000EC0411241FBECFEFD1E2DEBF6E
:10028000CDBF00E00CBF12E0A0E0B2E0E6E6FFE088
:1002900000E00BBF02C007900D92A435B107D9F75B
:1002A00023E0A4E5B2E001C01D92A137B207E1F757
:1002B00011E0CBE3D1E000E006C021970109802FD7
:1002C000FE010E94A007CA33D10780E00807A9F702
:1002D0000E9479050C94B1070C94000096E0899F68
:1002E000D0011124AE5FBC4F90967C936E935F97C4
:1002F00091E091969C939197E0916F03F091700338
:1003000090916E03992339F0309751F0811108C014
:1003100080911E031994309719F05C968C91FACF56
:100320000895CF92DF92EF92FF920F931F9396E082
:10033000899FF0011124EE5FFC4F11A2278D30A19F
:100340002130310551F178F02230310509F451C0E6
:100350002330310509F452C01F910F91FF90EF90A7
:10036000DF90CF9008956623B9F361E070E00E94BA
:100370006E012FB7F8948091610290916202A09172
:100380006302B09164022FBF80935A0390935B0382
:10039000A0935C03B0935D03DFCF9FB7F894C09048
:1003A0006102D0906202E0906302F09064029FBF0D
:1003B00000915A0310915B0320915C0330915D031F
:1003C000C01AD10AE20AF30A00916C0310916D037E
:1003D00030E020E00C151D052E053F0550F462E0CD
:1003E00070E01F910F91FF90EF90DF90CF900C94F1
:1003F0006E016111B1CF63E070E0F3CF70E060E0B7
:10040000F0CFAF92BF92CF92DF92EF92FF920F9315
:100410001F93CF93DF936C017B018B01040F151F9A
:10042000EB015E01AE18BF08C017D10759F0699102
:10043000D601ED91FC910190F081E02DC601199556
:10044000892B79F7C501DF91CF911F910F91FF9013
:10045000EF90DF90CF90BF90AF900895FC01538D47
:10046000448D252F30E0842F90E0821B930B54178E
:1004700010F0CF96089501970895FC01918D828D1B
:10048000981761F0A28DAE0FBF2FB11D5D968C91B4
:10049000928D9F5F9F73928F90E008958FEF9FEFF3
:1004A0000895FC01918D828D981731F0828DE80FAF
:1004B000F11D858D90E008958FEF9FEF0895FC0169
:1004C000918D228D892F90E0805C9F4F821B910936
:1004D0008F739927089585E692E00E945F0221E0DC
:1004E000892B09F420E0822F0895FC01A48DA80F28
:1004F000B92FB11DA35ABF4F2C91848D90E0019666
:100500008F739927848FA689B7892C93A089B18985
:100510008C91837080648C93938D848D981306C026
:100520000288F389E02D80818F7D80830895EF928A
:10053000FF920F931F93CF93DF93EC0181E0888F9D
:100540009B8D8C8D98131AC0E889F989808185FF6D
:1005500015C09FB7F894EE89FF896083E889F9890F
:1005600080818370806480839FBF81E090E0DF9111
:10057000CF911F910F91FF90EF900895F62E0B8D64
:1005800010E00F5F1F4F0F731127E02E8C8D8E111F
:100590000CC00FB607FCFACFE889F989808185FF86
:1005A000F5CFCE010E947502F1CFEB8DEC0FFD2F40
:1005B000F11DE35AFF4FF0829FB7F8940B8FEA8941
:1005C000FB8980818062CFCFCF93DF93EC01888D50
:1005D0008823B9F0AA89BB89E889F9898C9185FDBE
:1005E00003C0808186FD0DC00FB607FCF7CF8C914C
:1005F00085FFF2CF808185FFEDCFCE010E9475028D
:10060000E9CFDF91CF91089580E090E0892B29F028
:100610000E946B0281110E94000080E090E0892B13
:1006200049F080E090E0892B29F00E9400008111C0
:100630000E94000080E090E0892B49F080E090E08B
:10064000892B29F00E94000081110E94000080E0A7
:1006500090E0892B49F080E090E0892B29F00E94FE
:10066000000081110C94000008958150823108F03F
:100670005AC0E82FF0E08827EF5BFC4F8F4F0C94B7
:10068000A00761036503530359035D0393036803E4
:100690006E03720378037C03800386038A0393034B
:1006A0008E0394039803809180008F77809380005D
:1006B0000895809180008F7DF9CF80918000877FA1
:1006C000F5CF84B58F7784BD089584B58F7DFBCF3A
:1006D0008091B0008F778093B00008958091B00032
:1006E0008F7DF9CF809190008F778093900008954F
:1006F000809190008F7DF9CF80919000877FF5CF1A
:100700008091A0008F778093A00008958091A00031
:100710008F7DF9CF8091A000877FF5CF8091200158
:100720008F77809320010895809120018F7DF9CFEC
:1007300080912001877FF5CFCF93DF93282F30E082
:10074000F901E25DFD4F8491F901E851FE4FD4912A
:10075000F901EE55FE4FC491CC23A1F081110E9406
:100760003503EC2FF0E0EE0FFF1FE857FE4FA59189
:10077000B491EC91ED2381E090E009F480E0DF9109
:10078000CF91089580E090E0FACF862F0C949C03DF
:100790001F93CF93DF93282F30E0F901E25DFD4FE7
:1007A0008491F901E851FE4FD491F901EE55FE4FC5
:1007B000C491CC23A9F0162F81110E943503EC2F90
:1007C000F0E0EE0FFF1FE259FE4FA591B4918FB7F5
:1007D000F894EC91111108C0D095DE23DC938FBF03
:1007E000DF91CF911F910895DE2BF8CF862F642FD4
:1007F0000C94C803CF93DF9390E0FC01E851FE4FC7
:1008000024918E559E4FFC0184918823C9F090E07D
:10081000880F991FFC01EC5AFE4FA591B491FC0181
:10082000E259FE4FC591D49161110DC09FB7F89464
:100830008C91209582238C938881282328839FBFC5
:10084000DF91CF910895623051F49FB7F8943C91B5
:10085000822F809583238C93E8812E2BEFCF8FB747
:10086000F894EC912E2B2C938FBFEACF862F642F18
:100870000C94FA0342E050E06BE372E085E692E00C
:100880000C9401021F920F920FB60F9211240BB617
:100890000F922F933F934F935F936F937F938F9319
:1008A0009F93AF93BF93EF93FF9385E692E00E94EF
:1008B0007502FF91EF91BF91AF919F918F917F91C1
:1008C0006F915F914F913F912F910F900BBE0F90C1
:1008D0000FBE0F901F9018951F920F920FB60F9298
:1008E00011240BB60F922F938F939F93EF93FF9347
:1008F000E0917502F09176028081E0917B02F091A7
:100900007C0282FD1DC0908180917E028F5F8F737B
:1009100020917F02821741F0E0917E02F0E0EB59D6
:10092000FD4F958F80937E02FF91EF919F918F9164
:100930002F910F900BBE0F900FBE0F901F90189528
:100940008081F2CF1F920F920FB60F9211242F9336
:100950003F938F939F93AF93BF9380916102909148
:100960006202A0916302B09164023091580223E0C8
:10097000230F2D3758F50196A11DB11D2093580264
:100980008093610290936202A0936302B093640229
:100990008091540290915502A0915602B091570255
:1009A0000196A11DB11D8093540290935502A0930E
:1009B0005602B0935702BF91AF919F918F913F9193
:1009C0002F910F900FBE0F901F90189526E8230FC0
:1009D0000296A11DB11DD2CF10926802109267023B
:1009E00088EE93E0A0E0B0E08093690290936A0201
:1009F000A0936B02B0936C0283E292E09093660244
:100A00008093650285EC90E090937202809371026E
:100A100084EC90E0909374028093730280EC90E0F9
:100A2000909376028093750281EC90E09093780227
:100A30008093770282EC90E090937A02809379021F
:100A400086EC90E090937C0280937B0210927E0271
:100A500010927F0210928002109281021092040381
:100A600010920803109207031092090385E392E0A5
:100A70009093030380930203EEE1F3E0108214826B
:100A800013821582369683E0EA35F807B9F78BE0D2
:100A900092E0909365038093640387E092E09093E3
:100AA00067038093660384E08093680380936903FF
:100AB0008FE092E090936303809362038AE090E07A
:100AC00090936B0380936A0384EF91E090936D039E
:100AD00080936C031092700310926F0310925E0368
:100AE00010925F03109260031092610310926E03E4
:100AF0000895789484B5826084BD84B5816084BD96
:100B000085B5826085BD85B5816085BD80916E00AB
:100B1000816080936E0010928100809181008260DC
:100B20008093810080918100816080938100809119
:100B300080008160809380008091B1008460809308
:100B4000B1008091B00081608093B00080919100ED
:100B500082608093910080919100816080939100E8
:100B6000809190008160809390008091A1008260CC
:100B70008093A1008091A10081608093A100809169
:100B8000A00081608093A000809121018260809309
:100B900021018091210181608093210180912001B8
:100BA00081608093200180917A00846080937A0034
:100BB00080917A00826080937A0080917A008160CF
:100BC00080937A0080917A00806880937A001092F6
:100BD000C100E0917502F091760282E08083E0919D
:100BE0007102F09172021082E0917302F09174022E
:100BF0008FEC808310927D02E0917902F0917A026D
:100C000086E08083E0917702F091780280818061B4
:100C10008083E0917702F091780280818860808300
:100C2000E0917702F0917802808180688083E09182
:100C30007702F091780280818F7D808361E08AE085
:100C40000E94FA0361E08BE00E94FA0322242394BD
:100C5000412C512C32014394CC24CA94DC2C56E014
:100C6000352E20926E038FB7F89440916102509117
:100C7000620260916302709164028FBF80915E0393
:100C800090915F03A0916003B0916103481B590BE1
:100C90006A0B7B0B80916A0390916B03B0E0A0E03C
:100CA00084179507A607B70708F029C1C0E080910F
:100CB0006803C81760F4E0916403F0916503EC0FDA
:100CC000F11D62E080810E94FA03CF5FF0CF912C8A
:100CD00080916903981608F05FC0092D10E0E0913B
:100CE0006603F0916703E00FF11F61E080810E94CD
:100CF000FA03E0916603F0916703E00FF11F60E0F3
:100D000080810E94C803D301C201092C04C0880F4E
:100D1000991FAA1FBB1F0A94D2F75C017C01E094C3
:100D2000F094812C809168038816F8F4C82DD0E0E7
:100D3000E0916403F0916503EC0FFD1F80810E9438
:100D40009C032496CC0FDD1FCE5FDC4F892B41F432
:100D5000888199818A299B29998388838394E2CF0A
:100D6000888199818E219F21F7CFE0916603F091D0
:100D70006703E00FF11F61E080810E94C80380914A
:100D8000660390916703080F191F60E0F8018081E6
:100D90000E94FA0393949CCFC2E0D3E0FE01878DBA
:100DA00090A1892B21F4148ED68EC58E11A2369671
:100DB00083E0EE33F80799F710E080916803181785
:100DC00008F052C000E0E12EF12CEE0CFF1CF70100
:100DD000E65FFC4F7F0120916903021708F042C0D3
:100DE000F70160817181002E02C0769567950A94A3
:100DF000E2F7129F90011124200F311DE2E0F3E091
:100E000080E0458D568D2417350709F497C08F5F14
:100E100036968A30B1F760FF23C0E2E0F3E090E05D
:100E200080E0448D411117C0E0916203F0916303AB
:100E3000E20FF31F6081389EF001399EF00D1124FE
:100E4000EE5FFC4F648F368F258F10A2178E61E006
:100E50000E94910105C0019636968A30910509F7E6
:100E60000F5FB9CF1F5FA9CF80E099A19111892FA2
:100E70002696F3E0CE33DF07C1F79FB7F894409191
:100E800061025091620260916302709164029FBF9F
:100E900040935E0350935F0360936003709361031C
:100EA000882369F180912303882349F180912103EC
:100EB00090912203019719F560911E03611122C0E0
:100EC000809160028630C1F460E072E089E592E0D2
:100ED0000E94A807892B29F549E050E06EE372E0F3
:100EE00085E692E00E9401020E943A0461E08AE0F5
:100EF0000E94C803109260020E940403B2CE1092B6
:100F00006E03DECF80916002E82FF0E0E75AFD4FDC
:100F100060838F5F8093600285E692E00E94970273
:100F2000CFCF4BE050E068E472E085E692E00E94AB
:100F300001020E943A0460E08BE0DACF617088CF52
:100F4000EE0FFF1F881F8BBF0790F691E02D1994BD
:100F5000FB01DC018D91019080190110D9F3990BEF
:060F60000895F894FFCF94
:100F660031323334353600050403020908070631E9
:100F760032334134353642373839432A3023440038
:100F8600000000970201022E02E4025F023D0251B8
:100F960002000000003604F603C5030D0A002043D4
:100FA6006F7272656374610020496E636F72726559
:040FB60063746100FF
:00000001FF
